:100000000C94BD010C94DA010C94DA010C94E61402
:100010000C94DA010C94DA010C94DA010C94DA01F4
:100020000C94DA010C94DA010C94891B0C945D1C7D
:100030000C94C5160C94DA010C94DA010C94DA01D4
:100040000C94DA010C94DA010C94DA010C94DA01C4
:100050000C94DA010C9468170C94DA010C94DA0110
:100060000C94DA010C94DA010C94DA010C94DA01A4
:100070000C94DA010C94DA010C94DA010C94DA0194
:100080000C94DA010C94DA010C94DA010C94DA0184
:100090000C94DA010C94DA010C94DA010C94DA0174
:1000A0000C94DA010C94DA010C94DA0129001E0098
:1000B0001F002000210022002E002B0014001A0037
:1000C0000800150017002F00E000040016000700CC
:1000D00009000A00260235001D001B000600190059
:1000E0000500E1000000000000000052E200C252E2
:1000F000E3002A00270026002500240023002D000D
:100100003100130012000C0018001C0030003400F5
:1001100033000F000E000D000B00270228003800EE
:1001200037003600100011002C0000000000000015
:100130000052E000C152E50001003A003B003C00E3
:100140003D003E003F000100010024002500260084
:100150000100010001000100210022002300340001
:100160000100010001001E001F0020002700010007
:10017000000000000000010001000100010001007A
:1001800045004400430042004100400001000100DE
:100190000100010001000100010001000100010057
:1001A0000100010001000100010001000100010047
:1001B000010001000100000000000000010001003A
:1001C00001000100350001000100010001000100F3
:1001D000010001001E021F02200221022202010072
:1001E0000100010001000100010001000100010007
:1001F00001000100010001000100010000000000F9
:100200000000010001000100010001002E002D008E
:100210000100010001000100010027022602250261
:1002200024022302010001004E004F005200510041
:1002300050004B000100010001000100010001001D
:1002400001000000000000000100010001000100A9
:1002500001003A003B003C003D003E00010001006F
:100260000100010001000100010001000100010086
:100270000100010001000100010001000100010076
:100280000100010001000100000000000000010069
:100290000100010001000100430042004100400054
:1002A0003F00010001004500440001000100010081
:1002B0000100010001004D004B004E004A0001000A
:1002C0000100010001000100010001000100000027
:1002D0000000000001000100010001000E035000B9
:1002E00069006E006B007900340000001403740094
:1002F00061006D0061006E006900730068006900B4
:1003000000000403090409022200010100A0FA0907
:100310000400000103010100092111010001224034
:100320000007058103080001120100020000000817
:100330004E54347001000102000105010906A101BB
:10034000050719E029E715002501950875018102C7
:100350009501750881010507190029FF150026FF81
:100360000095067508810005081901290595057590
:10037000019102950175039101C011241FBECFEFB9
:10038000DAE0DEBFCDBF11E0A0E0B1E0E8EDFDE3D3
:1003900002C005900D92A233B107D9F722E0A2E383
:1003A000B1E001C01D92A632B207E1F70E947312BC
:1003B0000C94AB1E0C9400008430B8F46A30A8F49E
:1003C000473098F450E097E0699F400D511D11248B
:1003D000FA0196E4899FE00DF11D1124EE0FFF1F35
:1003E000E455FF4F85919491089580E090E0089541
:1003F0000E94DC01089581E0089581E008950E9443
:10040000FD01089508950E9402020895A5E0B0E05C
:10041000ECE0F2E00C942B1E49835A8330913901B1
:1004200089819A81311119C0662399F0222389F0BC
:100430000E942F07182F682F89819A810E940B072D
:1004400069817A81812F0E946D0D2596E3E00C94DD
:10045000471E0E941D07182FF3CF0E942F076981A6
:100460007A81F1CFFC01262F408151816281738115
:1004700084810E940602089581E00895CF93DF935E
:10048000EC0160E00E943202BE010E940302DF9193
:10049000CF9108950E94C50E08950E94C90E089537
:1004A00008950E94DA050E9450022FEF84E39CE039
:1004B000215080409040E1F700C0000008950E9464
:1004C00051020E948C1708950E9451020E949D17AC
:1004D00008950F931F93CF93DF938C0161E00E94E7
:1004E0003202EC01B8010E94FF01811106C080E0D8
:1004F000DF91CF911F910F910895B801CE010E9415
:1005000002148823A1F3B801CE010E949812882317
:1005100071F3B801CE010E947413882341F3F801EE
:100520008281882361F0C330FCE7DF07E9F058F4EB
:10053000C115ECE7DE07A9F0C130DC47B9F0C8010E
:100540000E94FB01D5CFCB358CE7D807A9F0CC357D
:10055000ECE7DE0771F0CA35DC4789F70E94310B02
:10056000EECF0E945F02C3CF0E94390B0E9464024B
:10057000BECF0E94270BE3CF0E94350BE0CF0E9435
:10058000A2160E94E90208950E94ED020E94A71699
:10059000089508950E94C902089581E0089508957C
:1005A000CF93DF93D82F0E94CD02C82F882319F054
:1005B0008D2F0E94CF028C2FDF91CF910895089547
:1005C000CF93C82F0E94CA028C2F0E94D002CF91D5
:1005D000089580E00E94E00208950E940C160E9497
:1005E000E0020895CF930E940C16C82F8091340129
:1005F0008C1779F0C09334010E9431176093350154
:100600007093360180933701909338018C2F0E94AC
:10061000E002CF910895ABE0B0E0E1E1F3E00C94AB
:100620002C1E4F83588769877A878B8761110E94B8
:10063000720A1E821D8285E0FE013796DE01119648
:1006400001900D928A95E1F78C819D81892B61F44F
:1006500049815A816B817C818D819E810E949B0999
:100660002B96E2E00C94481E89819A8189238F3F62
:1006700079F3CE0101960E943C028111E9CFF0CFBF
:10068000FC01808191810E9461070895CF93C82F5A
:100690008823B9F08CEF8C0F813AA8F46C2F8091ED
:1006A0000001909101010E943D16882329F08C2FB2
:1006B0000E94320A0E94930A8C2F0E942A0A0E94EA
:1006C000930ACF91089580E28C0F8830D0F7C770DD
:1006D00081E001C0880FCA95EAF70E94550AEFCF62
:1006E000882341F09CEF980F913A28F40E94320A37
:1006F0000E94930A089590E2980F9830D8F7877077
:1007000091E001C0990F8A95EAF7892F0E945B0A50
:10071000EFCF1F93CF93DF93182FEB010E94460377
:10072000209739F4812F0E947003DF91CF911F91A0
:1007300008958FE99FE00197F1F700C0000021972D
:10074000EFCF70E060E0893311F460E570E00E9463
:1007500089030895882321F00E94550A0E94930A74
:100760000895882321F00E945B0A0E94930A08954D
:10077000B0E0A0E0EEEBF3E00C94251E6C01D62F68
:10078000C72FFC011281F580F2949FE0F9220E94AC
:100790004B0AE82E8823B9F0E12E1123A1F08C2F0B
:1007A000807F803421F080E28D0F8830D0F08091FE
:1007B000FE0182FF16C082E00E94F60A0E944B0AE8
:1007C00091E0E82EE926BC2EB2948FE0B822FBE03F
:1007D000FB1508F468C0EB2DF0E0E355F14E0C94E6
:1007E000161EE12CF0CF0C2F0F70C07F11F0029578
:1007F000007F112399F0002359F080E28D0F88309B
:1008000010F0D11107C0802F0E94550A0E94930A50
:100810008D2F41C0802F0E94650AF8CF8D2F0E9436
:100820007003002309F43FC080E28D0F883010F080
:10083000D11104C0802F0E945B0A03C0802F0E9448
:100840006B0A0E94930A2FC00C2F0F70C07FC0321A
:1008500011F00295007FDD2381F0D13009F468C0EA
:10086000112309F472C0FF2009F468C0F6018581E4
:1008700080FFCECF8F70858361C08091FE0182FDA5
:1008800033C0112359F0002329F0802F0E94550A0C
:100890000E94930A80E00E94460305C080E00E9407
:1008A00070030111C7CFEB2DE850FF0B349720F4F4
:1008B0000E940C160E94E002EE2089F00E94470A76
:1008C00080FD0DC0F60112820E94410A0E94690655
:1008D000C6010E94A6050E94410A0E947906CDB772
:1008E000DEB7E9E00C94411E112389F0F11006C037
:1008F0000E94750A802B0E94AA03D5CF21E0F21234
:10090000F7CF0E94750A802B0E947C0ACCCFF11091
:1009100006C00E94890A802F0E94B103C4CF31E033
:10092000F31609F2802F0E94B1030E94890ABBCFFF
:10093000112331F085E08F1508F4B5CF802FDBCF80
:1009400094E09F1508F4AFCFE6CFFF2021F3D93311
:1009500049F4FFEF27EE33E0F15020403040E1F75B
:1009600000C000008D2F0E9470039DCF8C2F8370DC
:10097000A1F5111198CF4D2F429546954770440F20
:10098000440F2D2F2F7030E0042E02C0220F331F92
:100990000A94E2F790E080E0D4FF09C08FE090E095
:1009A00002C0880F991F4A95E2F780959095C695E9
:1009B000C695C370822B932BC23049F058F4C130D6
:1009C00019F00E9439066FCF0E9430066CCF0E944A
:1009D000420669CF0E942D0666CF8695112311F03D
:1009E0008C2F8170882309F45ECF4D2F4295469558
:1009F0004770440F440F2D2F2F7030E0042E02C09B
:100A0000220F331F0A94E2F790E080E0D4FF09C080
:100A10008FE090E002C0880F991F4A95E2F7809519
:100A20009095C695C695C370822B932BC23049F022
:100A300058F4C13019F00E94A40635CF0E949B06DD
:100A400032CF0E94AD062FCF0E9451062CCFCF701F
:100A5000112329F08C2F0E9469068D2F4CCF8D2FEA
:100A60000E94B1038C2F0E9479061DCFD23F51F115
:100A700060F4D03FB9F0D13F81F0112309F449C0AF
:100A8000F110C6CE8C2F8F7121C0D33F11F1D43F0E
:100A9000A1F78091FE0182FD26C08C2F8F7111235A
:100AA00011F314C0112349F084E08F1508F4FBCE34
:100AB0008C2F8F710E948B06F6CE95E09F1508F45F
:100AC000F2CEF6CF8C2F8F711111CDCF0E94690617
:100AD000EACE112329F08C2F8F710E945D06E3CEA0
:100AE0000E945806E0CE112349F0CF718C2F0E944E
:100AF000690663E08C2F0E94D80AD5CE81E00E945F
:100B0000F60AE1E0EF1508F0CECE82E00E94F60A88
:100B1000CACEF1101CCF8C2F8F71A5CF0F931F93CE
:100B2000CF93DF93EC01688179818A810E946C0701
:100B30008C010E94B6060E942C06B801CE010E94CC
:100B4000B803DF91CF911F910F910895CF93DF9359
:100B5000EC018B819C81892B29F0888199818923E3
:100B60008F3F51F4DF91CF910895CE010E948E0501
:100B7000CE010E943E02F6CFCE010E946902811191
:100B8000F4CF0E944B0A882369F38A81882351F3AA
:100B90008091FE0182FFE6CF82E00E94F60AE2CF5A
:100BA0000E94720A0E94930A08950E943A0A0E94C3
:100BB000D00508950E94620A0E94D5050895929575
:100BC0009F70963091F058F4925F9F70923058F475
:100BD000803F19F030F4883E30F481E008959A5F48
:100BE000F4CF843FD1F380E00895883EB0F3813F95
:100BF000D1F7F3CFFC0183819481892B29F0808187
:100C0000918189238F3F11F480E008958081918143
:100C10000E9461070E94DF050895A5E0B0E0E3E1CE
:100C2000F6E00C942C1E2596E2E00C94481EA6E0FB
:100C3000B0E0EDE1F6E00C942C1E2696E2E00C9478
:100C4000481E08950E94210608950E94220690934E
:100C5000610180936001089508950E94250608951A
:100C60002091600130916101822B932B0E94250617
:100C700008952091600130916101822393230E94A5
:100C80002506089520916001309161018227932704
:100C90000E94250608950E94210608950E944B0691
:100CA00008950E944E0690935F0180935E0108951F
:100CB00090E080E00E945106089521E030E0A90113
:100CC00002C0440F551F8A95E2F7CA010E945106DF
:100CD000089521E030E002C0220F331F8A95E2F729
:100CE00080915E0190915F01822B932B0E945106AF
:100CF000089521E030E002C0220F331F8A95E2F709
:100D00002095309580915E0190915F01822393231D
:100D10000E945106089521E030E002C0220F331FE7
:100D20008A95E2F780915E0190915F018227932777
:100D30000E945106089520915E0130915F01822B3F
:100D4000932B0E945106089520915E0130915F011E
:100D5000822393230E945106089520915E013091D1
:100D60005F01822793270E94510608950895262F38
:100D7000277091E001C0990F2A95EAF723E0769554
:100D800067952A95E1F7660F771F660F771FFA01BF
:100D9000E60FF71F50E040E0682F70E08191DF011F
:100DA00011979B01042E02C0369527950A94E2F70D
:100DB000217021952827292328272C934F5F5F4FE7
:100DC0004430510559F70895A82FA77023E0969550
:100DD00087952A95E1F7880F991F880F991FFB01C6
:100DE000E80FF91F50E040E080E0219130E00A2E4A
:100DF00002C0369527950A94E2F721703327042E16
:100E000001C0220F0A94EAF7822B4F5F5F4F4430F4
:100E1000510559F70895262F9A3070F4873060F401
:100E2000682F70E087E0989F600D711D11244AE3E0
:100E300051E0822F0E94B7060895292F9A3068F456
:100E4000873058F490E06AE371E037E0239F800D2B
:100E5000911D11240E94E406089580E00895B0E0F9
:100E6000A0E0E5E3F7E00C94251E7C0100915E0113
:100E700010915F018091600190916101082B192B05
:100E8000CFE0D0E0CC24C394D12CBC2EC6010C2ED4
:100E900002C0880F991F0A94E2F780239123892BBF
:100EA00049F4219790F7B12C8B2DCDB7DEB7E9E04F
:100EB0000C94411EB7018C2F0E94790D019789F384
:100EC000F3CFCF93DF93EC010E942F07BE010E9466
:100ED000790DDF91CF9108951F93CF93DF93EB01AD
:100EE00090913901992339F0CB010E946107DF917C
:100EF000CF911F910895882369F0CB010E942F079D
:100F0000182F682FCE010E940B07BE01812F0E946F
:100F1000790DEDCFCB010E941D07182FF6CF1F933F
:100F2000CF93DF93C091620116E0809163018C132F
:100F300004C0DF91CF911F910895D0E01C9FF00174
:100F40001D9FF00D1124EC59FE4F408151816281AB
:100F50007381848195810E9417062196C770E5CF21
:100F60004091940150919501609196017091970183
:100F700080919801909199010E94170608951F93FE
:100F8000CF93DF9380919901807F09F049C08091D0
:100F90009601882309F444C080916201C0916301E5
:100FA0006091940170919501A0919701B091980181
:100FB000D62FD72316E0C81799F190E0109711F0BB
:100FC000DF3F19F401968770F6CF189F9001199FA3
:100FD000300D1124F901EC59FE4F41814713F2CF36
:100FE00040814613EFCF42814111ECCF43815481C0
:100FF0004A1B5B0B483C510528F7809199018F7083
:10100000806180939901F901E759FE4F80818F70CB
:101010008061808384E991E00E94A6050E948F0789
:10102000DF91CF911F910895A1E1B0E0EAE1F8E0EE
:101030000C94241E8C0185E0F801DE011D960190C0
:101040000D928A95E1F7F801E28084E9C82E81E0EB
:10105000D82E60919701709198016115710509F47E
:101060004EC19091940120919501892F82238F3F49
:1010700009F445C140815181A380B480F09096016C
:10108000F501E61BF70BFF2009F4EAC080919901F6
:10109000382F307FE83CF10508F0A3C031116DC056
:1010A000FE2C251316C0941314C0E11012C08F70CB
:1010B0008061809399010E94B007C6010E94A60535
:1010C00080919901F80185838F2D6196EAE00C9457
:1010D000401EA114B10429F0842F85238F3F09F00D
:1010E00027C180E0F82FF170DF2E80FF3CC0809197
:1010F00062012091630136E0821315C04D875E873F
:101100008D859E850E946107292F22952F702230A0
:10111000F0F0243018F59F70F1F0F8019581907F80
:10112000D1F4D12C1EC090E0389FF001399FF00D12
:101130001124EC59FE4F6181651306C06081641370
:1011400003C06281E6120FC001968770D5CF9F70F1
:1011500011F0882331F3805E883018F3C8010E94B3
:10116000A605FD2CB1CFEE2009F4AECF80919901F8
:10117000816080939901F12CA7CF251306C09413A9
:1011800004C0F801EE2009F487C0C8010E94FA05E6
:10119000882319F1EE2009F180919901803270F0D5
:1011A000209194013091950138872F831986BB8651
:1011B000AA868C87CE0107960E94A60586E0F801D4
:1011C000A4E9B1E001900D928A95E1F70E94BF0772
:1011D0000E94B007FF24F39477CFC8010E94A605B0
:1011E000F9CF311113C07A2DB98AA88A6E2D898959
:1011F0000E940D0684E991E00E94A60586E0F601B2
:1012000011928A95E9F70E94B007B5CF25130FC058
:1012100094130DC0E1100BC0F8018583C8010E9432
:10122000A60586E0F60111928A95E9F74DCFC8012F
:101230000E94FA05882389F2EE2079F280919901C3
:10124000803208F4BBCF20919401309195013A830C
:1012500029831B82BD82AC828E83CE010196ACCFE6
:10126000E83CF10508F03EC0FE2CEE2009F4B5CFB5
:1012700025132AC0941328C08091990180FD1BC0BA
:10128000982F907FC1F0F8018583903F31F0982F1F
:10129000907F905F8F70892B8583C8010E94A6057F
:1012A00086E0F801A4E9B1E001900D928A95E1F79A
:1012B0000E94B00709CF86E0F801A4E9B1E00190EF
:1012C0000D928A95E1F700CFC8010E94FA058111BD
:1012D00075CF80919901816080939901C8010E9426
:1012E000A605F2CE7A2DB98AA88A6E2D89890E9428
:1012F0000D0686E0F60111928A95E9F7D9CFEE2026
:1013000009F46BCFC8010E94FA05F82E882309F46E
:1013100064CF86E0F801A4E9B1E001900D928A95CE
:10132000E1F784E991E00E9440030E94BF07C0CF2B
:1013300081E08E25D7CEACE0B0E0E1EAF9E00C9494
:101340002B1E4F83588769877A878B879C87CE01AE
:1013500007960E941408882369F08A859B85892B4B
:1013600039F04F815885842F85238F3F09F06BC05A
:1013700016E05FC086E0FE013796DE01119601900F
:101380000D928A95E1F78A859B85892B89F388855B
:101390009F8189238F3F61F32091630130E0C90170
:1013A000019687709927409162014817190671F4D8
:1013B0000E94DA05109263011092620186E0E4E96E
:1013C000F1E0DF011D928A95E9F7D2CF96E0929F76
:1013D000D001939FB00D1124AC59BE4FFE01319640
:1013E00001900D929A95E1F7809363010E948F0717
:1013F000BFCF819FC00111248C599E4F0E941408B9
:101400008823E9F0E09162011E9FF0011124EC595C
:10141000FE4F4081518162817381848195810E9458
:1014200017068091620190E001968770992780935A
:10143000620180916201909163018913DACF2C9649
:10144000E3E00C94471E69857A858B859C850E9414
:1014500017068ECF682F80910001909101010E94A4
:1014600073160895682F80910001909101010E94E8
:101470007616089580910001909101010E947916DD
:1014800008958091A201859585958595089580910F
:10149000A201877008959091A201977081E009F4EC
:1014A00080E008958091AD0108959091AD01892B60
:1014B0008093AD01089580959091AD01982390930C
:1014C000AD0108951092AD0108959091AC01892B62
:1014D0008093AC01089580959091AC0198239093EE
:1014E000AC0108951092AC0108958091A301089574
:1014F00008950E94780A08959091FE0192FF08C015
:101500009091A301981721F08093A3010E94790A7A
:1015100008958091A301882329F01092A30180E00F
:101520000E94790A0895CF93DF93E0910001F09132
:1015300001018091AD018083E0910001F0910101F2
:1015400080819091AC01892B80839091A301992394
:1015500081F0E0910001F09101018081892B80836D
:1015600080910001909101010E942B1681110E942F
:10157000890AC0910001D091010148E050E06AE978
:1015800071E0CE010E94531E892B59F088E0FE01C4
:10159000AAE9B1E001900D928A95E1F7CE010E948F
:1015A0002016DF91CF91089508950E94D40A0895DE
:1015B0009091FE0192FF11C098E0899F9001112443
:1015C000622B6093A2010E9469068091A201859519
:1015D000859585950E94D50A08950E94690608950B
:1015E0001092A20180E00E94D50A08959091A20174
:1015F000809589238093A201282F277091F4282FAA
:10160000082E000C330B9217130659F09091FE012F
:1016100092FF07C08595859585950E9479060E9461
:10162000F00A08959091FE0192FB222720F92817D5
:1016300069F080FB92F99093FE018091FD019091F9
:10164000FE010E945A0B82E00E94F60A08958091E2
:10165000FE0182FB882780F991E089270E94120B06
:10166000089581E00E94120B089580E00E94120B01
:1016700008956FEF7FEF90E080E00E94951E08953F
:1016800090E080E00E94711E21E0873E9E4F09F0AD
:1016900020E0822F089582E090E00E94691E089564
:1016A00083E090E00E94691E089584E090E00E942B
:1016B000711E0895BC0184E090E00E94951E08957B
:1016C000AB01BC018FE090E00E94891E0895AB0140
:1016D000BC0183E190E00E94891E089560E070E003
:1016E000CB010E94670B089560E070E0CB010E947F
:1016F000600B0E946E0B089567EE7EEF90E080E035
:101700000E94951E60E082E090E00E94771E60E0FB
:1017100083E090E00E94771E1092610110926001B8
:1017200060E074E184E090E00E94951E60E086E055
:1017300090E00E94771E6FEF87E090E00E94771E96
:1017400040E050E0BA0188E090E00E94891E60E02D
:101750008DE090E00E94771E40E050E0BA0188E101
:1017600090E00E94891E60E087E190E00E94771E71
:1017700040E050E0BA018CE190E00E94891E70E0E8
:1017800060E080E290E00E94951E40E050E0BA01E7
:1017900088E190E00E94891E0E94740B08950E94C7
:1017A0007C0B0895682F8EE090E00E94771E0895CC
:1017B0000E9431176093BE017093BF018093C001F6
:1017C0009093C1016093BA017093BB018093BC01F7
:1017D0009093BD010895089508950E94EC0B08951B
:1017E00008950E94F00B089583EA9EE00E9402167D
:1017F0000E94EB0B0E94ED0B08950E946F1008955C
:10180000089508950E94000C0E94010C08950E9402
:10181000A60E0E94DF0208950E941C170E94630E0C
:101820000E948A100E94D00F0E94070C0E94801212
:101830000E9494100E94F10B0895AAE0B0E0E3E248
:10184000FCE00C94241E0E94F30F80EBA82E81E094
:10185000B82E750110E0F70101917F01812F0E94E0
:10186000CC0E1F5F1A3009F440C00817A1F3809115
:10187000C20181FD0E94D20E0E94FD0BC82E10E015
:10188000812F0E94CC0E082FF50181915F0108176E
:1018900031F1F12CEE24E394D02ED8268D2D8E211B
:1018A000B1F0CC20A1F0FE821F8391E0802F8E2129
:1018B00009F490E098870E9425178160782F9A8715
:1018C00089874E815F8168858A850E940B03F39426
:1018D000EE0CF7E0FF12E2CFF501319700831F5FB6
:1018E0001A3071F60E94D80B20C00813C0CF0E9496
:1018F00025178C018091AE019091AF01081719074F
:10190000A1F08FEF89838A831B820E942517816053
:10191000782F9D838C8349815A816B818D810E94B0
:101920000B031093AF010093AE010E946F100E9451
:10193000F2022A96EAE00C94401ECF93DF930E94B5
:101940007E0DEC01811522E5920760F5811530E5E9
:10195000930708F0A8C0883E910598F4803E910551
:10196000E8F4853A910540F484309105B8F4019784
:10197000A9F0D0E0C0E012C08D3C9105D0F3D06555
:101980000DC08115904408F046C0C11580E2D8070B
:1019900008F096C0C11591E0D90758F3CE01DF9148
:1019A000CF910895803822E59207A8F4803632E579
:1019B000930708F05CC0803442E5940708F042C009
:1019C000C03282E5D80750F1CF71D0E0DC2FCC27B0
:1019D000C16FD06AE3CFC03C92E5D90780F48C2F69
:1019E0008F71C03AD24508F457C00E94200EC82F0C
:1019F000D0E0DC2FCC27CC27DF71D062CFCFC03E28
:101A000032E5D30708F0B5CFDC2FCC27CC27DF7128
:101A1000C06FD06AC3CFDF70D06AC0CF2C2F26959D
:101A2000269540E2249F900111248C2F8370C1E001
:101A3000D0E002C0CC0FDD1F8A95E2F7C22BD32B7A
:101A4000DD68ACCF282F26952695277080E2289F49
:101A5000900111248C2F8370C1E0D0E002C0CC0F24
:101A6000DD1F8A95E2F7C22BD32BDC6897CF282F96
:101A700026952695277090E2299F900111248C2F9E
:101A80008370C1E0D0E002C0CC0FDD1F8A95E2F781
:101A9000C22BD32BDA6882CFC82FD0E0DC2FCC2723
:101AA000C46FD06A7BCF8F710E94200E35E0D6952F
:101AB000C7953A95E1F7CF709C2FEC01D0696ECFB6
:101AC0008D2F8F710E94200E90E0982F88278827F5
:101AD0009F719C012C2BE90190CF462F7A3030F476
:101AE000673020F4672F0E94F801089590E080E0AD
:101AF00008950E946D0D0E949D0C089582389105F5
:101B0000B9F1B0F48133910509F47DC048F489320C
:101B1000910509F46DC08A32910509F47BC00895DE
:101B20008533910509F45FC08933910509F1089562
:101B3000833E9105D9F138F4803E910529F1823E2A
:101B4000910579F10895863E9105D9F1873E910579
:101B500009F43EC0843E910541F52091FE0121FF2C
:101B600024C08091FD0184FD19C087EE90E00895A6
:101B70002091FD01237009F05AC02091FE0123FF3E
:101B800014C089E290E008952091FD0120FD38C045
:101B90003091FE0130FF09C024FF43C090E080E097
:101BA00008952091FD0122FDF7CF08952091FD01B8
:101BB00022FD3AC03091FE0130FD39C024FFF5CF3F
:101BC000EDCF2091FD0123FFF0CF24FDE7CFCDCF56
:101BD0002091FD0123FD2EC03091FE0131FFEECF9B
:101BE00084EE90E008952091FD0125FFDECFC9CF5E
:101BF0002091FD0125FD21C02091FE0123FFD5CFBD
:101C000089E390E0D2CF2091FD0126FFCECF8AE27A
:101C100090E008952091FD0126FFC7CF81E390E079
:101C2000089583EE90E0089582EE90E0089580EEAE
:101C300090E0089586EE90E0089585E390E00895A1
:101C40009091FD0192FF06C0282F28712830F9F4E9
:101C5000877F846093FF06C0282F28712831F1F414
:101C6000877E84612091FE0120FF06C0382F3871E5
:101C70003830D9F4877F816021FF06C0282F287172
:101C80002831D1F4877E816194FD877E0895282FC5
:101C900024712430F9F68B7F8860DCCF282F2471E3
:101CA000243101F78B7E8861DDCF382F31713130DF
:101CB00019F78E7F8860E0CF282F2171213121F71D
:101CC0008E7E8861E1CF1092F9011092FA01109294
:101CD000FB011092FC010895CF92DF92EF92FF92E8
:101CE0006B017C010E946F1081110EC00E943117A0
:101CF000C61AD70AE80AF90AC092F901D092FA0185
:101D0000E092FB01F092FC01FF90EF90DF90CF900A
:101D100008950F931F930E946F10882329F00E944B
:101D200031171F910F9108950E9431170091F90109
:101D30001091FA012091FB013091FC01600F711F9D
:101D4000821F931FEECF80E0089508950E94400BFC
:101D5000811102C00E94CF0B0E944B0B8093C201E5
:101D60000E94550B9093FE018093FD010E94A50EE9
:101D70000E94500B90E00E942D0680915E01909190
:101D80005F010E944E06089508950E94C40E0895B2
:101D900008950E94C80E0895E82FF0E0E65FFD4F19
:101DA00080810895089580EA8A95F1F7089500C02A
:101DB00008950E94D30E089508950E94DC0E0895A0
:101DC000A5E0B0E0E6EEFEE00C94281E0E946F1045
:101DD000F82E60911402882309F440C085E0E82EB3
:101DE0008E010F5F1F4FF8018E2D11928A95E9F732
:101DF000862F90E0B801865F9D4F0E94A210882335
:101E0000B9F08091FF0190E045E050E0B801865FB5
:101E10009D4F0E94531E21E02093C301892B91F412
:101E2000F12C0E944D028F2D2596E6E00C94441E65
:101E30008091C3018823A1F3F8011192EA94E9F794
:101E40001092C301A091FF01B0E0A65FBD4F85E0F5
:101E5000F80101900D928A95E1F7E3CF70E0665F9B
:101E60007D4F8091FF0190E0865F9D4F0E94291178
:101E70000E94DD0ED8CFF894E82FE295EF70F0E0E5
:101E800031A1282F2F7081E090E001C0880F2A95A2
:101E9000EAF7982F9095932391A392A1892B82A37F
:101EA000789408950F931F93CF93DF93CBE2D1E003
:101EB00089918F3F11F00E943B0F81E0C033D8071A
:101EC000B9F7C4E2D1E00BE211E089918F3F11F044
:101ED0000E943B0F0C171D07C1F7DF91CF911F9197
:101EE0000F910895B0E0A0E0E8E7FFE00C94261E13
:101EF000EC01D62E062F10E0C801855D9E4F7C01B7
:101F0000FC0180818F3F09F444C0F894E82FE295EA
:101F1000EF70F0E091A18F7021E030E001C0220F5E
:101F20008A95EAF7892F822B81A382A12095282305
:101F300022A378940E94D70EE4E2F1E031E0C12CB4
:101F400021912F3F59F1A22FA295AF70B0E090964A
:101F50008C9190E02F7002C0959587952A95E2F7B5
:101F600080FD1CC0832FC82A330F81E0EB32F807B5
:101F700039F7F70180818F3F11F00E943B0F61E03C
:101F8000C11001C060E08D2D0E94D90EC00FD11F7D
:101F9000C882CDB7DEB7E8E00C94421E80E0E3CF04
:101FA000809102018091020195E0811190E090936F
:101FB000140285E0891B8093FF010E94520F8AE082
:101FC000EAE0F2E0DF01982F1D929A95E9F7E0E050
:101FD000F2E0DF011D928A95E9F785E00E94311059
:101FE0000E944A020895AAE0B0E0E9EFFFE00C94F5
:101FF000291E8E010F5F1F4F8AE0F80111928A950A
:10200000E9F7F12C6F2DC8010E94720FF394F5E0EF
:10201000FF12F8CF4AE050E0B80180E092E00E9461
:10202000531E21E0009709F420E0892B41F08AE05B
:10203000F801A0E0B2E001900D928A95E1F760917D
:10204000140270E0665F7D4F45E080E092E00E9400
:102050003210182F0E94E00E812B2A96E5E00C9496
:10206000451E0895CF92DF92EF92FF920F931F9338
:10207000CF936C017B01042F222349F081E08093F0
:10208000C6010E9425179093C5018093C401C09199
:10209000C601C1110AC0C0E08C2FCF911F910F91D2
:1020A000FF90EF90DF90CF9008958091C4019091C0
:1020B000C5010E943D17059770F310E0A801B60115
:1020C000C7010E94531E892B41F0A801B601C70128
:1020D0000E94601E1092C601DFCFC0E0FBCF80914E
:1020E000C901811107C00E94091E882351F081E0B7
:1020F0008093C90181E09091C901913009F080E09D
:10210000089582E08093C9010E94041EF3CF0E94CB
:102110006F1008950E948710809302010E946F1033
:1021200081110E94D81008950E946F10811102C081
:102130000E94DB10089581E09091CA019A3008F066
:1021400080E008950F931F93CF93DF93EC018B01F1
:102150008091CA018A30B8F4B801CE010E942611DC
:10216000C82F811122C08091CA018F3FB9F40E940B
:1021700025179093C8018093C7018C2FDF91CF91D1
:102180001F910F9108958091C7019091C8010E94FD
:102190003D17843F914000F7C0E0EFCF8F5F809301
:1021A000CA018A3020F7C1E0E8CF1092CA01E5CF1A
:1021B0000E94A01408950E94A3140895B0E0A0E026
:1021C000E4EEF0E10C94271E7901C82F880FDD0B97
:1021D00041155105A9F0FE0193E0EE0FFF1F9A95FE
:1021E000E1F7ED5FFE4F8181928185539E4F208103
:1021F00030E04217530708F49A01A9010E94601EBB
:10220000CE010E948C15D82E8823D1F0011511051E
:10221000B9F083E0CC0FDD1F8A95E1F7FE01ED5F99
:10222000FE4F438150E00417150708F4A801CD5F65
:10223000DE4F6C817D8165537E4FC7010E94601E19
:102240008D2DCDB7DEB7E7E00C94431E0E94181227
:1022500008950E942F120895A4E0B0E0E2E3F1E1B6
:102260000C942A1E6091E2017091E3018091E401D7
:102270009091E5010E944C1711E0643671058105CB
:10228000910518F10E94890E6E5F7F4F8F4F9F4F0F
:1022900069837A838B839C8310E000E030E020E048
:1022A00044E050E0BE016F5F7F4F82E00E94DE108D
:1022B000182F882351F00E9431176093E201709328
:1022C000E3018093E4019093E501812F2496E4E0FB
:1022D0000C94461EB0E0A0E0E0E7F1E10C94241E6F
:1022E0007C015B016A010E949B1001E010E08823E1
:1022F00011F00AE010E0C1E0D0E0B501C701F6013D
:102300000995811104C021960C171D072CF4CDB737
:10231000DEB7EAE00C94401ECC9F9001CD9F300DBB
:10232000300D112490E080E045E34A95F1F700007C
:10233000019682179307C1F7E0CFA6E0B0E0E3EA89
:10234000F1E10C94241E7B01C0903001D09031014A
:1023500001E010E09E012A5F3F4F50E040E070E056
:1023600060E080E00E94DE10182F882309F448C046
:1023700056018FEFA81AB80A6091DE017091DF0153
:102380008091E0019091E1010E944C176436710543
:102390008105910568F105E010E09E012F5F3F4F38
:1023A00050E040E070E060E081E00E94DE10D82E56
:1023B00065E070E0C5010E94811211E09E819813D2
:1023C00010E01D2141F10E9431176093DE017093EE
:1023D000DF018093E0019093E10185E0FE013196F9
:1023E000A9EDB1E001900D928A95E1F711E013C0DB
:1023F00065E070E0C5010E9481129E818913CBCFF8
:1024000085E0F6013196DE01119601900D928A95D4
:10241000E1F71111E2CF85E0E9EDF1E0D70101909C
:102420000D928A95E1F7812F2696EAE00C94401EE2
:102430000F931F93CF93DF93EC018B014DE951E193
:102440000E946A11882331F04CE251E1B801CE01BB
:102450000E946A11DF91CF911F910F9108950F9300
:102460001F93CF93DF93C0913001D0913101CE0102
:10247000019625E0FB01DC0101900D922A95E1F720
:1024800065E070E00E94811288836E817F8188857B
:1024900099850091D5011091D6012091D7013091F5
:1024A000D801601771078207930751F06093D50137
:1024B0007093D6018093D7019093D8010E946C0E3F
:1024C000DF91CF911F910F9108950E94F1180E9402
:1024D0000C0C0E94FE1808950E9403190E941D0C06
:1024E0000E941D1908950E94BE160E94D7180E94CE
:1024F000F40B0E9465120E946C120E94020CFBCF2A
:102500000895FC01680F791F8FEF91E3E617F70735
:1025100009F408952191822728E030E087FF06C062
:10252000880F892721503109C9F7F0CF880FFACFDA
:10253000CF93DF93EC01FB018281882309F4D2C0A1
:102540009E0130572332310508F0B2C00E94550B6E
:102550009093FE018093FD01FE01E150F047E232CD
:10256000F10520F4E754F14E0C94161E8091FD0104
:1025700081608093FD0193C08091FE01886080930B
:10258000FE018DC08091FD018260F3CF8091FD013D
:102590008460EFCF8091FD018860EBCF8091FE01D8
:1025A0008160EDCF8091FE018260E9CF8091FD01D5
:1025B0008061DFCF8091FD018062DBCF8091FD01E2
:1025C0008064D7CF0E94DA058091FD018068D1CF69
:1025D0008091FD018C60CDCF8091FE018360CFCFD3
:1025E0008091FD018E7FC5CF8091FE01877FC7CF8F
:1025F0008091FD018D7FBDCF8091FD018B7FB9CF93
:102600008091FD01877FB5CF8091FE018E7FB7CF8E
:102610008091FE018D7FB3CF8091FD018F7EA9CF88
:102620008091FD018F7DA5CF8091FD018F7BA1CF92
:102630000E94DA058091FD018F779BCF8091FD018B
:10264000837F97CF8091FE018C7F99CF8091FD0190
:1026500082FB992790F921E0922790FB82F990FB69
:1026600083F987CF8091FE01982F909591708E7F8E
:10267000892B90FB81F983CF9091FD01892F8F7B6E
:1026800096FF806476CF0E94DA059091FD01892F34
:1026900097FB87F980586DCF81E00E94D20B809123
:1026A000FD019091FE010E945A0B0E94DA0580E024
:1026B000DF91CF91089580E0F0CF9091FD01892FB7
:1026C0008F7E94FF806155CF9091FD01892F8E7F81
:1026D00090FF81604ECF9091FE01892F877F93FFFD
:1026E00088604DCF81E0E4CFCF93DF93EB0186315B
:1026F0009C4711F50E94520A9A81992399F08A7A8F
:1027000091E009F490E09093E601811109C089E21B
:102710000E942A0A0E94930A80E0DF91CF910895D7
:1027200085E3F6CF8091E601811104C089E20E9421
:10273000320AF0CF85E3FBCF81E0EFCF0F931F93F9
:10274000CF93DF93C42FD22FFC0182818823C9F05D
:102750004093E9010E9425179093E8018093E701D7
:1027600080E28C0F883040F4C77081E001C0880F90
:10277000CA95EAF70E94AA03DF91CF911F910F91AA
:1027800008951091E901141332C08091E7019091EE
:10279000E8010E943D17883C910548F5C0E2CD0F45
:1027A0001D17B9F080E2810F883040F4177081E086
:1027B00001C0880F1A95EAF70E94B103C83048F4A7
:1027C00081E09D2F977001C0880F9A95EAF70E94CB
:1027D000AA03802F0E94A103C83070F6D77081E051
:1027E00001C0880FDA95EAF70E94B103C5CF80E2F5
:1027F0008C0F883008F6C77081E001C0880FCA9539
:10280000EAF7F2CF0F93DB0188519C47873091059F
:10281000A0F5FC01E552F14E0C94161E06E221EEE5
:1028200041EE6AE17CE7CD010E949E1380E00F91AA
:10283000089507E225EE45EE6BE17CE7F4CF06E272
:1028400021EE40EE68E17CE7EECF07E225EE44EEB4
:1028500069E17CE7E8CF06E221EE42EE6CE17CE73D
:10286000E2CF07E225EE46EE6DE17CE7DCCF08E241
:1028700021E045EE6EE17CE7D6CF12968C9188235D
:1028800019F01092E901D3CF81E0D1CF8EE14A9BBC
:1028900002C08150E1F74A9BFECF08955A9880E22A
:1028A0008A95F1F75A9A0895FC013BE03A95F1F7C1
:1028B00098E020E080E031E040E14A95F1F7880FB0
:1028C0004A9B02C08160232742E04A95F1F700004D
:1028D00040E14A95F1F7915079F790E19A95F1F737
:1028E00099B132E03A95F1F7000040E14A95F1F7ED
:1028F00092FB992790F992272081920F9083089557
:10290000A1E0B0E0E6E8F4E10C94281E19828C0105
:102910007C01E60EF11C0E151F0541F481E0998142
:10292000911180E02196E6E00C94441E0E9446142A
:10293000CE0101960E945414F80181938F01EBCFD0
:10294000529A5A9A089552985A9AEA9AE9E6F0E009
:1029500080818F7C808308956150770B91E001C066
:10296000990F6A95EAF720E031E0911108C022231F
:1029700091F05A9A80E28A95F1F75A980895492F72
:10298000482339F05A9A232740E24A95F1F7969561
:10299000ECCF5A98F9CF5A98EDCFFF920F931F932F
:1029A000CF93DF93EC018C01060F111DC017D107E7
:1029B00029F4CDB7DEB7E5E00C94451EF9900E94EE
:1029C0004E1468E08F2D0E94AC14F0CF1F920F922E
:1029D0000FB60F9211240F931F932F933F934F9392
:1029E0005F936F937F938F939F93AF93BF93EF9377
:1029F000FF93CF93DF930F92CDB7DEB719820E947A
:102A00004614CE0101960E945414082F069506958F
:102A10000695282F22952570902F9570290F922FBB
:102A2000937026952695920F982797708981982BF9
:102A300009F05CC0043008F059C080E18A95F1F7D4
:102A40005A9A529A82E08A95F1F700C05A9888E023
:102A5000089F80011124D801AD5FBE4F1696ED91FD
:102A6000FC9117973097A9F0609130017091310176
:102A700014962D913C911597260F371F11968D9125
:102A80009C911297680F791F13964C9113978C9114
:102A90000995F801ED5FFE4F6381662351F02091A7
:102AA00030013091310184819581820F931F0E9402
:102AB000CD140E944E1480E18A95F1F75A985298ED
:102AC0005A9A80E18A95F1F7F801ED5FFE4F608137
:102AD000662351F020913001309131018181928142
:102AE000820F931F0E9480140E9446140F90DF9162
:102AF000CF91FF91EF91BF91AF919F918F917F9176
:102B00006F915F914F913F912F911F910F910F9076
:102B10000FBE0F901F9018950F931F93CF93DF93C5
:102B2000EC0104970CF04CC0F894529A5A9885E046
:102B30008A95F1F700009C2F969595708C2F8570E3
:102B4000980F892F83709695969523E0CC0FDD1F03
:102B50002A95E1F7980F8E01092B0E944E1400C0B0
:102B600068E0802F0E94AC1480E18A95F1F75298BA
:102B70005A9A4A9B1EC087E090E04A991CC0FE0109
:102B8000ED5FFE4F63816623F9F0209130013091B3
:102B9000310184819581820F931F0E9480148111DD
:102BA00013C0529A5A9A7894DF91CF911F910F9146
:102BB000089500C0DECF019729F4529A5A9A78946A
:102BC00080E0F2CF00C0D9CF0E94461480E28A95FF
:102BD000F1F75A98529A80E18A95F1F7CD5FDE4F6E
:102BE0006881662351F02091300130913101898153
:102BF0009A81820F931F0E94CD140E944E147894E4
:102C000081E0D2CF90933301809332010895909365
:102C1000EC018093EB0108950E946F10811103C0B5
:102C20008091EA010895E091EB01F091EC01309779
:102C300029F00190F081E02D0995089580E0089534
:102C4000E091EB01F091EC01309721F00280F381EB
:102C5000E02D099508959C012E5F3F4FAC01485F20
:102C60005F4F80E02417350709F40895F901919129
:102C70009F019923B9F38F5FF5CF662349F0FC01DB
:102C8000329608962191261729F0E817F907D1F70F
:102C900080E0089581E008959C01FC0132969FEF49
:102CA00080E04191461751F09F3F19F4411101C056
:102CB000982F8F5F8630A9F79F3F09F40895290F59
:102CC000311D97FD3A95F90162830895FC01329612
:102CD00008962191261303C0DF0111971C92E81773
:102CE000F907B9F708950E944C1608950E946616D8
:102CF0000895029626E0FC0111922A95E9F70895BD
:102D000008950E9480160895811106C081E0809385
:102D1000ED010E948116089582E0F9CF83E080934F
:102D2000ED010E94811608950E948416089581E0A5
:102D30008093ED010E94811608950E9497160895D0
:102D4000089508950E94A1160895089508950E9477
:102D5000A0160895CF930E94A5160E94F30F0E941B
:102D6000A616C0E08C2F0E94CC0E811105C0CF5F4B
:102D7000CA30C1F7CF91089581E0FCCF85B7806854
:102D800085BF85B7806885BF08951F921FB61F92C3
:102D900011248F939F93AF93BF938091EE01811184
:102DA00013C08091150290911602A0911702B09164
:102DB00018024196A11DB11D809315029093160231
:102DC000A0931702B0931802BF91AF919F918F917A
:102DD0001F901FBE1F90189580911D02843031F105
:102DE0000E94BF021092EE0188E190E020E40FB64D
:102DF000F894A895809360000FBE2093600083B77D
:102E0000817F846083BF83B7816083BF7894889516
:102E100083B78E7F83BF0FB6F894A895809160002A
:102E2000886180936000109260000FBE08950E9438
:102E3000DA050E94C402089582E084BD93E095BD46
:102E40009AEF97BD80936E0008952FB7F894809104
:102E5000150290911602A0911702B09118022FBF8F
:102E600008952FB7F8946091150270911602809121
:102E70001702909118022FBF08959C014FB7F89444
:102E80008091150290911602A0911702B09118023C
:102E90004FBF821B930B0895CF92DF92EF92FF9268
:102EA0002FB7F894C0901502D0901602E090170248
:102EB000F09018022FBFA7019601261B370B480B75
:102EC000590BCA01B901FF90EF90DF90CF900895A0
:102ED00078941F921FB61F9211248F939F93AF93E4
:102EE000BF938091150290911602A0911702B091A4
:102EF00018020196A11DB11D809315029093160230
:102F0000A0931702B0931802BF91AF919F918F9138
:102F10001F901FBE1F90189587E797E790930108B1
:102F20008093000888E19AE00FB6F894A895809302
:102F300060000FBE90936000FFCF88E19AE00FB66B
:102F4000F894A895809360000FBE90936000FFCF27
:102F50008091F7010895089508959B01BA01909119
:102F60001D029430E9F48F708093E9009FEF809107
:102F7000E800915085FD06C085ED8A95F1F70000C7
:102F80009111F5CF8091E80085FF0AC050E040E044
:102F9000C9010E947D198091E8008E778093E80036
:102FA0000895CF93DF93EC0148E050E0BC0181E04D
:102FB0000E94AD1788E0FE01AFEEB1E001900D92E6
:102FC0008A95E1F7DF91CF91089580911C028111DC
:102FD00009C00E940D1B0E946A1B8091E200846060
:102FE0008093E200089510921C0208950E949716A3
:102FF00008956091190281E0611101C080E00E9492
:103000008E16089590911D0281E0943009F080E0C1
:10301000609119020E949416089542E061EC81E0EB
:103020000E94891A90911D0281E0943009F080E09D
:10303000609119020E948416089580911F028330C6
:1030400009F461C030F48130D1F1823009F49EC0BE
:1030500008958A3009F48AC08B3009F46FC0893032
:1030600009F050C080911E02813209F04BC080915E
:10307000220290912302892B09F044C08091E8003C
:10308000877F8093E8008091E80082FF37C09091AD
:10309000F3008091F200029731F48091F1008130C9
:1030A00011F0863021F48091F1008093F701809136
:1030B000E8008B778093E8000E94BD1A23C08091BE
:1030C0001E02813AF9F48091E800877F8093E8003E
:1030D0008091220290912302892B61F468E08FEEA7
:1030E00091E070E00E94CC198091E8008B7780938A
:1030F000E800089560E090E080E0F3CF80911D0249
:103100008111C1CF089580911E02813AD9F7809133
:10311000220290912302892BA9F78091E800877FF2
:103120008093E8008091E80080FFFCCF809123012C
:103130008093F1008091E8008E77BCCF80911E02D1
:10314000813201F78091220290912302892BD1F6DE
:103150008091E800877F8093E8000E94BD1A8091EB
:103160002002809323010E94DA05089580911E02B7
:10317000813241F68091E800877F8093E8000E94C9
:10318000BD1A809121028093F801089580911E025A
:10319000813A09F0B7CF8091E800877F8093E800FB
:1031A0008091E80080FFFCCF8091F801C1CF84B707
:1031B000877F84BF0FB6F894A895809160008861DE
:1031C00080936000109260000FBE80E890E00FB620
:1031D000F89480936100909361000FBE0E949D1649
:1031E00008950E940D1B0E946A1BE2EEF0E08081B0
:1031F0008460808378940E94E91D08958BE191E0BA
:103200000E940716089580911D02853031F4809147
:103210001D02853019F00E94171708950E94EC16C0
:1032200080911B02882399F30E94AA16882379F3C0
:103230000E9467190E94DA05EACF08950E942119B9
:103240000895292F332723303105C9F058F4213050
:10325000310599F122303105A9F190E080E030E0AC
:1032600020E01DC02132310509F122323105A9F7D4
:1032700080E490E02AE333E0672B79F710C09927C8
:103280008130910581F0009729F0029731F7ECED3C
:10329000F2E002C0E2E0F3E0849190E09F01FA01E5
:1032A000318320830895ECEEF2E0F6CF89E090E0E0
:1032B00028E133E0672B89F6F2CF82E190E028E243
:1032C00033E0EDCF82E290E026E033E0E8CF80E12A
:1032D00089BD82E189BD09B400FEFDCF8091D8008F
:1032E0008F7D8093D8008091E00082608093E00021
:1032F0008091E00081FDFCCF0895AF92BF92CF9204
:10330000DF92FF920F931F93CF93DF936C01EB013A
:103310008A010E94DC1AF82E811123C001151105C3
:1033200039F0F80180819181C81BD90BC80ED91ED4
:10333000B12CA12C2097A9F08091E80085FD22C036
:103340008091E8008E778093E80001151105A1F0C7
:10335000F80180819181A80EB91EB182A08285E01A
:10336000F82E8F2DDF91CF911F910F91FF90DF905D
:10337000CF90BF90AF9008950E94DC1A8823D1F2BD
:10338000F82EEFCFF60181916F018093F100219724
:10339000FFEFAF1ABF0ACECFFC01809124029091BB
:1033A000250286179707A0F06115710529F4909101
:1033B000E8009E779093E80090E06115710551F464
:1033C000911108C08091E80082FF34C080E0089528
:1033D000BC01F2CF80911D028823C1F18530C1F17B
:1033E0008091E80083FD30C08091E80082FDEACF43
:1033F0008091E80080FFE1CF8091F3002091F200FE
:10340000382F6115710519F02830310558F091E019
:103410002830310509F090E02091E8002E772093C4
:10342000E800CBCF81918093F100615071092F5F4B
:103430003F4FE7CF80911D02882341F0853041F056
:103440008091E80083FFBECF81E0089582E0089577
:1034500083E00895FC018091240290912502861753
:103460009707A0F06115710529F48091E8008E7727
:103470008093E80090E06115710551F4911108C046
:103480008091E80082FF35C080E00895BC01F2CF52
:1034900080911D028823C9F18530C9F18091E8002F
:1034A00083FD31C08091E80082FDEACF8091E80081
:1034B00080FFE1CF8091F3002091F200382F611559
:1034C000710519F02830310558F091E028303105A8
:1034D00009F090E08091E8008E778093E800CBCFF0
:1034E00084918093F1003196615071092F5F3F4FB5
:1034F000E6CF80911D02882341F0853041F0809114
:10350000E80083FFBDCF81E0089582E0089583E065
:103510000895982F973028F08F708093E90081E00C
:1035200008959093E900242F762F50E0981731F0FA
:103530007091EC002091ED005091F00021FD02C04F
:103540009F5FE8CF3091EB003E7F3093EB003091EE
:10355000ED003D7F3093ED003091EB003160309312
:10356000EB007093EC002093ED005093F00020915D
:10357000EE0027FDE5CF80E0089580911E0287FFD1
:1035800013C08091E80082FF06C08091E8008B772D
:103590008093E80004C080911D028111F2CF08954C
:1035A00080911D028823D9F38091E80080FFF8CF35
:1035B0008091E8008E77ECCF2091E4003091E50017
:1035C00095E6A9012091EC00822F817020FF06C0B2
:1035D0008091E80080FF06C080E008952091E80017
:1035E00022FD1AC080911D02882389F0853089F060
:1035F0008091EB0085FD0FC02091E4003091E50043
:1036000042175307F9F29150E1F684E0089582E001
:10361000089583E0089581E008950E947C1B0E9434
:10362000841BE0EEF0E0808181608083E8EDF0E0D3
:1036300080818F77808319BCA7EDB0E08C918E7F5D
:103640008C9380818F7E808310921C0208950F934B
:103650001F93CF93DF930E947C1B0E94841BC8EDB5
:10366000D0E088818F77888388818068888388818B
:103670008F7D888319BC10921D021092190210923E
:103680001B0210921A0200EE10E0F80180818B7F7D
:10369000808388818160888342E060E080E00E94CE
:1036A000891AE1EEF0E080818E7F8083E2EEF0E027
:1036B000808181608083808188608083F80180813F
:1036C0008E7F8083888180618883DF91CF911F9175
:1036D0000F910895E8EDF0E080818F7E8083E7ED23
:1036E000F0E080818160808384E082BF81E080930C
:1036F0001C020E94271B0895E8EDF0E080818E7F78
:1037000080831092E20008951092DA001092E10096
:1037100008951F920F920FB60F9211242F933F938B
:103720004F935F936F937F938F939F93AF93BF93C9
:10373000EF93FF938091E10082FF0BC08091E20044
:1037400082FF07C08091E1008B7F8093E1000E949F
:10375000E81D8091DA0080FF19C08091D80080FFB9
:1037600015C08091DA008E7F8093DA008091D900B5
:1037700080FF96C080E189BD82E189BD09B400FE69
:10378000FDCF81E080931D020E94E5178091E1004A
:1037900080FF19C08091E20080FF15C08091E20097
:1037A0008E7F8093E2008091E20080618093E2004E
:1037B0008091D80080628093D80019BC85E0809306
:1037C0001D020E94F9178091E10084FF2BC08091B7
:1037D000E20084FF27C080E189BD82E189BD89B50F
:1037E000982F917080FFFBCF8091D8008F7D8093C0
:1037F000D8008091E1008F7E8093E1008091E2000B
:103800008F7E8093E2008091E20081608093E200ED
:1038100080911902882309F449C084E080931D0235
:103820000E9402188091E10083FF29C08091E2008C
:1038300083FF25C08091E100877F8093E10082E0D3
:1038400080931D02109219028091E1008E7F809377
:10385000E1008091E2008E7F8093E2008091E2009F
:1038600080618093E20042E060E080E00E94891A7B
:103870008091F00088608093F0000E94F617FF911D
:10388000EF91BF91AF919F918F917F916F915F91D8
:103890004F913F912F910F900FBE0F901F90189551
:1038A00019BC10921D020E94F31770CF8091E300A3
:1038B00087FD93E090931D02B3CF1F920F920FB636
:1038C0000F9211242F933F934F935F936F937F93A6
:1038D0008F939F93AF93BF93CF93DF93EF93FF9318
:1038E000D091E900DF708091EC00C82FC17080FD9D
:1038F000C0E81092E9008091F000877F8093F0008B
:1039000078940E94A11C1092E9008091F0008860D8
:103910008093F000CD2BCF70C093E900FF91EF9121
:10392000DF91CF91BF91AF919F918F917F916F91D7
:103930005F914F913F912F910F900FBE0F901F906D
:103940001895AAE2B0E0E7EAFCE10C942B1E8EE1A8
:1039500092E02091F100FC012193CF01F2E0863248
:103960009F07B9F70E941D188091E80083FF1EC1D0
:1039700080911E0290911F029A3008F017C1E92F22
:10398000F0E0EE51F14E0C94161E803899F082381A
:1039900009F00CC1809122028F70873008F006C1B7
:1039A0008093E9008091EB0085FB882780F91092D5
:1039B000E90006C080911A0290911B029111826069
:1039C0009091E800977F9093E8008093F100109227
:1039D000F1008091E8008E77E5C0882309F4D3C018
:1039E000823009F0E3C0809120028111D6C080911D
:1039F00022028F702FEF280F263008F0D7C0809357
:103A0000E9002091EB0020FFC8C0933031F4809191
:103A1000EB0080628093EB00C0C09091EB0090615E
:103A20009093EB0021E030E001C0220F8A95EAF785
:103A30002093EA001092EA008091EB008860EACFC0
:103A40008111B4C0109120021F778091E30080782B
:103A5000812B8093E3008091E800877F8093E800CA
:103A60000E94BD1A8091E80080FFFCCF8091E300A6
:103A700080688093E30082E0111183E080931D024F
:103A800095C08058823008F091C0809120029091BA
:103A900021028C3D23E09207A1F583E08A838AE22C
:103AA00089834FB7F894DE01139620E03EE051E29F
:103AB000E32FF0E050935700E49120FF03C0E2951C
:103AC000EF703F5FEF708E2F90E0EA30C0F0C79646
:103AD0008D939D932F5F243159F74FBF8091E8005C
:103AE000877F8093E8006AE270E0CE0101960E9431
:103AF000CC198091E8008B778093E80057C0C0967E
:103B0000E7CF6091220270912302AE014F5F5F4FB9
:103B10000E941E19BC01892B09F448C09091E8004D
:103B2000977F9093E80089819A810E942A1AE1CFB9
:103B30008038E1F58091E800877F8093E8008091EC
:103B400019028093F10045CF811130C0909120027D
:103B5000923060F58091E800877F8093E800909331
:103B600019020E94BD1A80911902882311F084E085
:103B700005C08091E30087FDFACF81E080931D02AC
:103B80000E940D1813C080912002813079F481E0E9
:103B9000933009F080E080931B021092E90080913D
:103BA000E800877F8093E8000E94BD1A8091E800BA
:103BB00083FF0AC08091E800877F8093E8008091AE
:103BC000EB0080628093EB00AA96E3E00C94471E22
:103BD0000895CF9380911D028823A1F0C091E90040
:103BE000CF709091EC00892F817090FD80E8C82BF8
:103BF0001092E9008091E80083FD0E94A11CCF7023
:103C0000C093E900CF9108950E940D1B10921D02F0
:103C10000895E8EDF0E08081806180838AE18A95F3
:103C2000F1F700C08091D90081700895EE0FFF1F59
:103C30000590F491E02D09942F923F924F925F925C
:103C40006F927F928F929F92AF92BF92CF92DF92AC
:103C5000EF92FF920F931F93CF93DF93CDB7DEB711
:103C6000CA1BDB0B0FB6F894DEBF0FBECDBF0994A5
:103C70002A88398848885F846E847D848C849B84FC
:103C8000AA84B984C884DF80EE80FD800C811B810A
:103C9000AA81B981CE0FD11D0FB6F894DEBF0FBE39
:103CA000CDBFED010895FB01DC0104C08D910190B1
:103CB000801921F441505040C8F7881B990B089592
:103CC000FB01DC0102C001900D9241505040D8F739
:103CD0000895F999FECF92BD81BDF89A992780B5D4
:103CE0000895A8E1B0E042E050E00C949D1E262F1C
:103CF000F999FECF92BD81BDF89A019700B40216E2
:103D000039F01FBA20BD0FB6F894FA9AF99A0FBE8F
:103D100008950396272F0E94781E0E94771E252F54
:103D20000E94781E242F0C94781E0196272F0E9443
:103D3000781E0C94771EDC01CB01FC01F999FECFB3
:103D400006C0F2BDE1BDF89A319600B40D92415023
:103D50005040B8F70895F894FFCFF303F303240419
:103D600024045304530453045304B60427053605AE
:103D70003605F0126413F812C212C612FC12CA12EF
:103D800000130C13D6125D13DA121013DE12141383
:103D90003C13E21218134313E8121E132613CE121B
:103DA0000413D2120813EC12221332134C135B13B8
:103DB000BC12F4126B131F1425140E1419142B14B7
:103DC00031143714C51CED1CD61DED1CD61D201D4D
:083DD000411DD61D981DA41D24
:103DD800A40101000000010000000000000005012E
:103DE8000000000406000000000000A817D117AC6E
:103DF80017AB1701F4F5F6F7313332946697C634EA
:023E0800CB01EC
:00000001FF
